:020000040000FA
:100000005629FF3FFF3FAD08031D07280800F930C0
:10001000FF3E031D0828AD0B07280800D530A500BA
:10002000C430A600BB30A700DC30A8002D08A50610
:100030002E08A606A508031D0800A608031D080033
:10004000A708031D0800A808031D0800A50A031936
:10005000A60A080083120313AF01B00104302F0277
:1000600030080318352803193728B01F60280310FB
:10007000A70DA80D8030260503194128A70A0319EA
:10008000A80A0310A50DA60D8030280503195628CF
:1000900008302505B100B201B108031D5C28B20883
:1000A000031D5C28A50A0319A60A5C28A51D5C2867
:1000B000A50A031D5C28A60AAF0A0319B00A2E2858
:1000C00027082506B10028082606B2000800B2015C
:1000D000B001B101B11908000310B00DAD0DB20DA2
:1000E0002E083202031C7628B2003014B10A6A28A6
:1000F0000800B001B201B101B11908000310B20D3E
:10010000AD0DB00D2E083002031C8828B00032144B
:10011000B10A7C280800AF080319B2282F0303197D
:10012000B5282F08023A0319B8282F08033A0319F3
:10013000BB282F08043A0319BE282F08053A0319D3
:10014000C1282F08063A0319C4282F08073A0319B3
:10015000C7282F08083A0319CA282F08093A031993
:10016000CD28D0287E308600080014308600080094
:100170006D30860008005D3086000800173086006C
:1001800008005B30860008007B30860008001E30C7
:10019000860008007F30860008005F308600080077
:1001A00086010800FC308316031385008601831244
:1001B0008501860107309F000A30AD000320051934
:1001C000EE280530AD000320023085000530AD007B
:1001D00003208501A90A0319AA0ADF280A30AD0005
:1001E00003200519F1280A30AD0003202908AD00CD
:1001F0002A08AE000E20AC0101302C02031C182985
:100200002C08313C031C182920082C060319182936
:1002100021082C060319182922082C06031918296D
:1002200023082C060319182924082C06031D242949
:100230002A203108AD003208AE000310AE0CAD0C20
:100240000A302D06AC00FC282308A4002208A300D5
:100250002108A2002008A1002C08A00005194D29A2
:10026000851405102C08AD000A30AE006720320856
:10027000AF008B200530AD000320860105148510EA
:100280002C08AD000A30AE0079203208AF008B2078
:100290000530AD00032086012E290A30AD00032071
:1002A000051DFB280A30AD000320502983120313DB
:1002B0002B10AB10A001A101A201A301A401D53014
:1002C000A500C430A600BB30A700DC30A8008A110E
:1002D0000A12D228FF3FFF3FFF3FFF3FFF3FFF3F94
:1002E000FF3FFF3FFF3FFF3FFF3FFF3FFF3FFF3F1E
:1002F000FF3FFF3FFF3FFF3FFF3FFF3FFF3FFF3F0E
:10030000FF3FFF3FFF3FFF3FFF3FFF3FFF3FFF3FFD
:10031000FF3FFF3FFF3FFF3FFF3FFF3FFF3FFF3FED
:02400E00183F59
:08400000FF3FFF3FFF3FFF3FC0
:00000001FF
